:020000040000FA
:06000000FCEF01F012000C
:020006001200E6
:060008001FEF00F01200E2
:0600180016EF00F01200DB
:02001E000100DF
:0C00200014040000600000001F0000003D
:04002C00DACFE4FF44
:10003000E2CFDAFFE652E552E5CFDAFF1100DACF80
:10004000E4FFE2CFDAFFE9CFE4FFEACFE4FFE652D4
:10005000D9CFE6FFE1CFD9FFE652DF6A80B21BD0ED
:100060000001712B000E72237D517219E8AE02D08F
:10007000723504D071517C5D72517D590BE2010ED5
:10008000706F300E896E6C6B6D6B6E6B6F6B010EEB
:10009000716F726B03D00001716B726B80B01CD0FA
:1000A000752B000E76237D517619E8AE02D0763599
:1000B00004D075517C5D76517D590DE2010E706F53
:1000C000300E896E775102E0000E01D0010E776F7D
:1000D000010E756F766B02D0756B766BF2A458D0FB
:1000E000B10ED76EE00ED66E000EE76E7019E8AE58
:1000F00002D0703503D0E750D880705501E2702BE4
:1001000070C000F0016A00BE01687B510118E8AEC2
:1001100002D0013404D000507A5D01507B5902E2D4
:10012000706B806A6051020A18E0030A10E0010A4D
:1001300008E0030A01E017D08A688F0E8A6E606BB0
:1001400012D08A684F0E8A6E010E606F0CD08A68DA
:100150002F0E8A6E020E606F06D08A681F0E8A6E9E
:10016000030E606F00D060C0E9FFEA6AE9BEEA688A
:100170006C0EE926000EEA22EFCFE9FFEA6AE9BE3B
:10018000EA68610EE926000EEA22EF508B6EF294C7
:10019000F2A08BD0736B746BD38E8050010B15E182
:1001A000705113E1090E6F5D09E1090E6E5D06E104
:1001B000090E6D5D03E1090E6C5D01E06C2B7705A6
:1001C00002E1200E896E010E706F8050020B11E16A
:1001D00070510FE16F5106E16E5104E16D5102E182
:1001E0006C5101E06C07770502E1200E896E010E6B
:1001F000706FDF6ADFCF00F0040EE76E0018E8AE24
:1002000002D0E73402D0E750005C4EE2DFCFE9FFD6
:10021000EA6AE9BEEA686C0EE926000EEA22EFCF30
:1002200000F0090EE76E0018E8AE02D0003403D0EB
:10023000E750D880005414E2DF28E96EEA6AE9BE8C
:10024000EA686C0EE926000EEA22EF2ADFCFE9FF0A
:10025000EA6AE9BEEA686C0EE926000EEA22EF6A55
:10026000DFCFE9FFEA6AE9BEEA686C0EE926000E14
:10027000EA22EFCF00F0003415E3DF28E96EEA6AE6
:10028000E9BEEA686C0EE926000EEA22EF06DFCF2F
:10029000E9FFEA6AE9BEEA686C0EE926000EEA2286
:1002A000090EEF6EDF2AA6D7F2900001732B000E25
:1002B000742379517419E8AE02D0743504D07351A7
:1002C000785D7451795903E2D39E0F0E8A6EE55220
:1002D000E552E7CFD9FFE552E5CFEAFFE5CFE9FFE9
:1002E000E5CFDAFF110000017E5108E109D80BD8F3
:1002F000936A946A0001010E7E6FD38E0300120090
:10030000F40ED36E1200CF0E926E806AF19EF180D1
:10031000030E796EF286D59CD59AD586B10ED76E2E
:10032000E00ED66ED58ED08EF28CF28EF28AF28AE4
:0A033000F184F294D58EF28E1200D3
:06033A001E0EF66E000E1F
:10034000F76E000EF86E00010900F550846F090089
:10035000F550856F03E1846701D03DD00900F55069
:100360007F6F0900F550806F0900F550816F09001B
:100370000900F550E96E0900F550EA6E0900090020
:100380000900F550826F0900F550836F09000900DC
:10039000F6CF86F0F7CF87F0F8CF88F07FC0F6FF72
:1003A00080C0F7FF81C0F8FF0001825302E1835350
:1003B00007E00900F550EE6E8207F8E28307F9D7EF
:1003C00086C0F6FF87C0F7FF88C0F8FF00018407EA
:0803D000000E855BBFD712008F
:0803D800000EF36E00EE00F0D0
:1003E000030E01D81200EA6002D0EE6AFCD7F35087
:0803F000E9601200EE6AFCD77F
:0803F80011EE00F021EE00F00F
:10040000F86A039C9DEC01F003EC00F073EC01F042
:04041000FBD7120004
:0C041400003F065B4F666D7D077F677937
:10042000000000000000000000000001E02E0F00AE
:03043000E80300DE
:020000040030CA
:0100010008F6
:0100020019E4
:010003001EDE
:010006008178
:00000001FF
