:020000040000FA
:06000000D6EF0BF0120028
:020006001200E6
:06000800CCEF0AF012002B
:0600180070EF0AF0120077
:02001E000100DF
:0C002000C8170000600000009B000000FA
:04002C00D9CFE6FF43
:10003000E1CFD9FFE652800EDF6EFE0EDB06D9500F
:10004000FE0FE96EFF0EDA20EA6EDF50EFCFE7FF1A
:10005000E75204E0E8427F0BE706FCE1DF6EDF5089
:100060000001F611F66FE552E552E7CFD9FF120015
:10007000D9CFE6FFE1CFD9FFE652DF6AFE0EDBCF34
:10008000E6FF080EE552D880E754F6C0E7FF070BFD
:1000900004E0E742E79EE806FCE1E750DF6E010E70
:1000A000DF14DF6EDF5000D0E552E552E7CFD9FF15
:1000B00012000001F66B120080B004D0010EE66E53
:1000C000B5DFE55280B204D0020EE66EAFDFE55236
:1000D00080B404D0030EE66EA9DFE55280B604D0EA
:1000E000040EE66EA3DFE55282B004D0050EE66E84
:1000F0009DDFE5521200D9CFE6FFE1CFD9FFE652EE
:1001000060C0DFFF8D6ADFCF14F0070EE76E1418B2
:10011000E8AE02D0143403D0E750D880145412E271
:10012000080EDF5E100EDF24E96EEA6AE9BEEA68B7
:10013000610EE926000EEA22EF50300B040DF35059
:100140008B6E0DD0100EDF24E96EEA6AE9BEEA6814
:10015000610EE926000EEA22EF50C00B8B6E010EF5
:10016000DF5206E0DFCFF3FFE846FE0BF306FCE1CB
:100170008A6E60C0E9FFEA6AE9BEEA68610EE926B4
:10018000000EEA22EF508C6E070E0001E76E601938
:10019000E8AE02D0603503D0E750D880605503E266
:1001A000010E8D6E02D0020E8D6E602B100E605D02
:1001B00001E1606BE552E552E7CFD9FF1200D9CFDC
:1001C000E6FFE1CFD9FF020EE126DF6A010EDB6A0E
:1001D000FE0EDB06FD0EDB06FE0EDB50080804E01B
:1001E000FE0EDB50090831E1FD0EDBCF14F0080EE6
:1001F000E76E1418E8AE02D0E73402D0E750145C82
:1002000017E3FD0EDBCF15F0100EE76E1518E8AE04
:1002100002D0E73402D0E750155C0AE2080E146EF3
:10022000FD0EDBCFE7FF1450E75EFD0EE7CFDBFFEF
:10023000080E146EFE0EDBCFE7FF1450E75EFE0ED5
:10024000E7CFDBFFDE52100EDD6EFE0EDBCFE6FFEA
:10025000070EE552D880E754E76EFE0EE7CFDBFFCE
:10026000DBCF14F0010EDBCFE6FFFD0EDB50E552D5
:10027000E724E96EEA6AE9BEEA68610EE926000E43
:10028000EA22EF5014C0E7FFE75204E0E8427F0B98
:10029000E706FCE1DF6E010EDF14DF6EDF50146E47
:1002A000020EE15C03E200D0E16AE552E16E145017
:1002B000E552E7CFD9FF1200D9CFE6FFE1CFD9FF52
:1002C000020EE126FE0EDBCF14F0000EE76E1418CE
:1002D000E8AE02D0143403D0E750D880145401E3C0
:1002E000C6D0FE0EDBCF15F00B0EE76E1518E8AE8C
:1002F00002D0E73402D0E750155C01E3B8D0FD0E20
:10030000DBCF16F0000EE76E1618E8AE02D01634FA
:1003100003D0E750D880165401E3A9D0FD0EDBCFFF
:1003200017F0110EE76E1718E8AE02D0E73402D0CE
:10033000E750175C01E39BD0800EDF6E010EDB6A95
:10034000FE0EDB06FD0EDB06FE0EDB50080804E0A9
:10035000FE0EDB50090826E1FD0EDBCF14F0080E7F
:10036000E76E1418E8AE02D0E73402D0E750145C10
:100370000CE3200EDF6E080E146EFD0EDBCFE7FFE0
:100380001450E75EFD0EE7CFDBFF080E146EFE0E85
:10039000DBCFE7FF1450E75EFE0EE7CFDBFFDE5258
:1003A000100EDD6EFC0EDB50010BE76EFC0EE7CF8E
:1003B000DBFFD950FE0FE96EFF0EDA20EA6EDF5048
:1003C000EFCFE7FFE75204E0E8427F0BE706FCE1EE
:1003D000DF6EFC0EDB0425E1010EDBCFE6FFFD0E38
:1003E000DB50E552E724E96EEA6AE9BEEA68610E8D
:1003F000E926000EEA22EF50DF10E66E010EDBCF99
:10040000E6FFFD0EDB50E552E724E96EEA6AE9BE3D
:10041000EA68610EE926000EEA22E552E750EF6E27
:1004200026D0DF1C146E010EDBCFE6FFFD0EDB5085
:10043000E552E724E96EEA6AE9BEEA68610EE92658
:10044000000EEA22EF501414E66E010EDBCFE6FF39
:10045000FD0EDB50E552E724E96EEA6AE9BEEA6880
:10046000610EE926000EEA22E552E750EF6E020E19
:10047000E15C02E2E16AE552E16EE552E7CFD9FFC5
:100480001200D9CFE6FFE1CFD9FFE652DF6ADF6A7B
:10049000DFCF14F0050EE76E1418E8AE02D0E73493
:1004A00002D0E750145C01E343D1070ED880DF543B
:1004B000146EFB0EDBCFE9FFFC0EDBCFEAFFEF5043
:1004C00014C0E7FFE75204E0E8427F0BE706FCE1D7
:1004D000010B010820E1070ED880DF54146EFB0EDB
:1004E000DBCFE9FFFC0EDBCFEAFFEF5014C0E7FFE4
:1004F000E75204E0E8427F0BE706FCE1010BE66E01
:10050000FD0EDBCFE6FFFE0EDB50DF24E66ED4DE11
:10051000E552E552E552070ED880DF54146E010E05
:10052000E76EFB0EDBCFE9FFFC0EDBCFEAFFE75007
:10053000E926000EEA22EF5014C0E7FFE75204E07C
:10054000E8427F0BE706FCE1010B010826E1070EFC
:10055000D880DF54146E010EE76EFB0EDBCFE9FF8F
:10056000FC0EDBCFEAFFE750E926000EEA22EF504F
:1005700014C0E7FFE75204E0E8427F0BE706FCE126
:10058000010BE66EFD0EDB28E66EFE0EDB50DF246F
:10059000E66E92DEE552E552E552070ED880DF5452
:1005A000146E020EE76EFB0EDBCFE9FFFC0EDBCF15
:1005B000EAFFE750E926000EEA22EF5014C0E7FFF9
:1005C000E75204E0E8427F0BE706FCE1010B01087B
:1005D00027E1070ED880DF54146E020EE76EFB0E83
:1005E000DBCFE9FFFC0EDBCFEAFFE750E926000E88
:1005F000EA22EF5014C0E7FFE75204E0E8427F0B25
:10060000E706FCE1010BE66EFD0EDB50020FE66E25
:10061000FE0EDB50DF24E66E4FDEE552E552E5527A
:10062000070ED880DF54146E030EE76EFB0EDBCF8F
:10063000E9FFFC0EDBCFEAFFE750E926000EEA22D5
:10064000EF5014C0E7FFE75204E0E8427F0BE706F3
:10065000FCE1010B010827E1070ED880DF54146E7E
:10066000030EE76EFB0EDBCFE9FFFC0EDBCFEAFFEC
:10067000E750E926000EEA22EF5014C0E7FFE752E8
:1006800004E0E8427F0BE706FCE1010BE66EFD0E9D
:10069000DB50030FE66EFE0EDB50DF24E66E0CDE51
:1006A000E552E552E552070ED880DF54146E040E71
:1006B000E76EFB0EDBCFE9FFFC0EDBCFEAFFE75076
:1006C000E926000EEA22EF5014C0E7FFE75204E0EB
:1006D000E8427F0BE706FCE1010B010827E1070E6A
:1006E000D880DF54146E040EE76EFB0EDBCFE9FFFB
:1006F000FC0EDBCFEAFFE750E926000EEA22EF50BE
:1007000014C0E7FFE75204E0E8427F0BE706FCE194
:10071000010BE66EFD0EDB50040FE66EFE0EDB50A5
:10072000DF24E66EC9DDE552E552E552DF2AB0D698
:10073000E552E552E7CFD9FF1200D9CFE6FFE1CF6E
:10074000D9FFE652DF6ADF6ADFCF14F0050EE76EED
:100750001418E8AE02D0E73402D0E750145C01E38D
:10076000C7D0070ED880DF54146EFB0EDBCFE9FF35
:10077000FC0EDBCFEAFFEF5014C0E7FFE75204E0C6
:10078000E8427F0BE706FCE1010B01080CE1E66A99
:10079000FD0EDBCFE6FFFE0EDB50DF24E66E8CDDC8
:1007A000E552E552E552070ED880DF54146E010E73
:1007B000E76EFB0EDBCFE9FFFC0EDBCFEAFFE75075
:1007C000E926000EEA22EF5014C0E7FFE75204E0EA
:1007D000E8427F0BE706FCE1010B01080CE1E66A49
:1007E000FD0EDB28E66EFE0EDB50DF24E66E64DDD8
:1007F000E552E552E552070ED880DF54146E020E22
:10080000E76EFB0EDBCFE9FFFC0EDBCFEAFFE75024
:10081000E926000EEA22EF5014C0E7FFE75204E099
:10082000E8427F0BE706FCE1010B01080DE1E66AF7
:10083000FD0EDB50020FE66EFE0EDB50DF24E66E8F
:100840003BDDE552E552E552070ED880DF54146EC9
:10085000030EE76EFB0EDBCFE9FFFC0EDBCFEAFFFA
:10086000E750E926000EEA22EF5014C0E7FFE752F6
:1008700004E0E8427F0BE706FCE1010B01080DE113
:10088000E66AFD0EDB50030FE66EFE0EDB50DF2442
:10089000E66E12DDE552E552E552070ED880DF54D0
:1008A000146E040EE76EFB0EDBCFE9FFFC0EDBCF10
:1008B000EAFFE750E926000EEA22EF5014C0E7FFF6
:1008C000E75204E0E8427F0BE706FCE1010B010878
:1008D0000DE1E66AFD0EDB50040FE66EFE0EDB5006
:1008E000DF24E66EE9DCE552E552E552DF2A2CD73B
:1008F000E552E552E7CFD9FF1200D59CD59AD5989D
:10090000D596A09AD594D592D590FE0ED76E700E3E
:10091000D66ED08EF28CF28EF28AF194F294D58E4D
:100920001200D9CFE6FFE1CFD9FF040EE1260F0E6A
:10093000C16E9268936A010E946E956A966ADDDFC5
:10094000010EF36E020EF3CFDBFFDBCF14F0110EBE
:10095000E76E1418E8AE02D0E73402D0E750145C1A
:1009600026E2DE52010EDD6EDBCF14F00B0EE76ED9
:100970001418E8AE02D0E73402D0E750145C14E259
:10098000010EE66E020EDBCFE6FF010EDBCFE6FFC7
:1009900093DCE552E552E5521E0EE66EB6EC0BF026
:1009A000E552010EDB2AE0D7020EDB2ACED7010E7C
:1009B000F36E020EF3CFDBFFDBCF14F0110EE76E08
:1009C0001418E8AE02D0E73402D0E750145C25E2F8
:1009D000DE52010EDD6EDBCF14F00B0EE76E141845
:1009E000E8AE02D0E73402D0E750145C13E2E66AC6
:1009F000020EDBCFE6FF010EDBCFE6FF5DDCE5524A
:100A0000E552E5521E0EE66EB6EC0BF0E552010E15
:100A1000DB2AE1D7020EDB2ACFD7030EDB6ADBCF5E
:100A200014F0460EE76E1418E8AE02D0E73402D098
:100A3000E750145C01E3FCD1790EE66E000EE66E21
:100A4000040EE66E030EDBCFE6FF0B0EE552D880F8
:100A5000E754E66E72DEE552E552E552E552790E54
:100A6000E66E000EE66E040EE66E030EDBCFE6FFCA
:100A70000A0EE552D880E754E66E03DDE552E552F2
:100A8000E552E5527E0EE66E000EE66E040EE66E50
:100A9000030EDBCFE6FF100EE552D880E754E66E7A
:100AA0004CDEE552E552E552E5527E0EE66E000E52
:100AB000E66E040EE66E030EDBCFE6FF0F0EE55288
:100AC000D880E754E66EDDDCE552E552E552E552AA
:100AD000830EE66E000EE66E040EE66E030EDBCFAE
:100AE000E6FF150EE552D880E754E66E26DEE552A5
:100AF000E552E552E552830EE66E000EE66E040EF8
:100B0000E66E030EDBCFE6FF140EE552D880E75405
:100B1000E66EB7DCE552E552E552E552880EE66E28
:100B2000000EE66E040EE66E030EDBCFE6FF1A0E35
:100B3000E552D880E754E66E00DEE552E552E55214
:100B4000E552880EE66E000EE66E040EE66E030EAB
:100B5000DBCFE6FF190EE552D880E754E66E91DC54
:100B6000E552E552E552E5528D0EE66E000EE66E58
:100B7000040EE66E030EDBCFE6FF1F0EE552D880B3
:100B8000E754E66EDADDE552E552E552E5528D0EA8
:100B9000E66E000EE66E040EE66E030EDBCFE6FF99
:100BA0001E0EE552D880E754E66E6BDCE552E55246
:100BB000E552E552920EE66E000EE66E040EE66E0B
:100BC000030EDBCFE6FF240EE552D880E754E66E35
:100BD000B4DDE552E552E552E552920EE66E000EA6
:100BE000E66E040EE66E030EDBCFE6FF230EE55243
:100BF000D880E754E66E45DCE552E552E552E55211
:100C0000970EE66E000EE66E090EE66E030EDBCF63
:100C1000E6FF240EE552D880E754E66E8EDDE552FD
:100C2000E552E552E552970EE66E000EE66E090EAD
:100C3000E66E030EDBCFE6FF230EE552D880E754C5
:100C4000E66E1FDCE552E552E552E5529C0EE66E7B
:100C5000000EE66E090EE66E030EDBCFE6FF290EF0
:100C6000E552D880E754E66E68DDE552E552E5527C
:100C7000E5529C0EE66E000EE66E090EE66E030E61
:100C8000DBCFE6FF280EE552D880E754E66E41EC54
:100C900002F0E552E552E552E552A10EE66E000E75
:100CA000E66E090EE66E030EDBCFE6FF2E0EE55272
:100CB000D880E754E66E41DDE552E552E552E55253
:100CC000A10EE66E000EE66E090EE66E030EDBCF99
:100CD000E6FF2D0EE552D880E754E66E41EC02F0B7
:100CE000E552E552E552E552880EE66E000EE66EDC
:100CF000090EE66E030EDBCFE6FF330EE552D88019
:100D0000E754E66E1ADDE552E552E552E552880EEB
:100D1000E66E000EE66E090EE66E030EDBCFE6FF12
:100D2000320EE552D880E754E66E41EC02F0E5520F
:100D3000E552E552E552A60EE66E000EE66E090E8D
:100D4000E66E030EDBCFE6FF380EE552D880E7549F
:100D5000E66EF3DCE552E552E552E552A60EE66E8C
:100D6000000EE66E090EE66E030EDBCFE6FF370ED1
:100D7000E552D880E754E66E41EC02F0E552E552C8
:100D8000E552E5529C0EE66E000EE66E090EE66E2A
:100D9000030EDBCFE6FF3D0EE552D880E754E66E4A
:100DA000CCDCE552E552E552E5529C0EE66E000EB3
:100DB000E66E090EE66E030EDBCFE6FF3C0EE55253
:100DC000D880E754E66E41EC02F0E552E552E55278
:100DD000E552AB0EE66E000EE66E090EE66E030EF1
:100DE000DBCFE6FF420EE552D880E754E66EA5DC85
:100DF000E552E552E552E552AB0EE66E000EE66EA8
:100E0000090EE66E030EDBCFE6FF410EE552D880F9
:100E1000E754E66E41EC02F0E552E552E552E55248
:100E20000A0EE66E89EC0BF0E552030EDB2AF7D5CD
:100E3000040EE15C02E2E16AE552E16EE552E7CFC1
:100E4000D9FF1200D9CFE6FFE1CFD9FFE652DF6A22
:100E5000040EDF6EDFCF14F0150EE76E1418E8AE47
:100E600002D0E73402D0E750145C01E3A4D0AB0E0B
:100E7000E66E000EE66E040EE66E060ED880DF54B7
:100E8000E66E5BDCE552E552E552E552AB0EE66EEE
:100E9000000EE66E040EE66E050ED880DF54E66E98
:100EA00041EC02F0E552E552E552E5528D0EE66E58
:100EB000000EE66E040EE66E0B0ED880DF54E66E72
:100EC0003CDCE552E552E552E5528D0EE66E000E31
:100ED000E66E040EE66E0A0ED880DF54E66E41EC34
:100EE00002F0E552E552E552E5527E0EE66E000E46
:100EF000E66E040EE66E110ED880DF54E66E1DDC41
:100F0000E552E552E552E5527E0EE66E000EE66EC3
:100F1000040EE66E100ED880DF54E66E41EC02F04F
:100F2000E552E552E552E552830EE66E000EE66E9E
:100F3000040EE66E160ED880DF54E66E9DEC03F0CC
:100F4000E552E552E552E552830EE66E000EE66E7E
:100F5000040EE66E150ED880DF54E66E41EC02F00A
:100F6000E552E552E552E5529C0EE66E000EE66E45
:100F7000040EE66E1B0ED880DF54E66E9DEC03F087
:100F8000E552E552E552E5529C0EE66E000EE66E25
:100F9000040EE66E1A0ED880DF54E66E41EC02F0C5
:100FA000E552E552E552E5521E0EE66E89EC0BF075
:100FB000E552DF2A4FD7140EDF6EDFCF14F0030E99
:100FC000E76E1418E8AE02D0143403D0E750D8808E
:100FD000145401E3A7D0AB0EE66E000EE66E040ECD
:100FE000E66E050ED880DF54E66E9DEC03F0E55208
:100FF000E552E552E5528D0EE66E000EE66E040EE9
:10100000E66E0A0ED880DF54E66E9DEC03F0E552E2
:10101000E552E552E5527E0EE66E000EE66E040ED7
:10102000E66E100ED880DF54E66E9DEC03F0E552BC
:10103000E552E552E552830EE66E000EE66E040EB2
:10104000E66E150ED880DF54E66E9DEC03F0E55297
:10105000E552E552E5529C0EE66E000EE66E040E79
:10106000E66E1A0ED880DF54E66E9DEC03F0E55272
:10107000E552E552E552AB0EE66E000EE66E040E4A
:10108000E66E060ED880DF54E66E41EC02F0E552C3
:10109000E552E552E5528D0EE66E000EE66E040E48
:1010A000E66E0B0ED880DF54E66E41EC02F0E5529E
:1010B000E552E552E5527E0EE66E000EE66E040E37
:1010C000E66E110ED880DF54E66E41EC02F0E55278
:1010D000E552E552E552830EE66E000EE66E040E12
:1010E000E66E160ED880DF54E66E41EC02F0E55253
:1010F000E552E552E5529C0EE66E000EE66E040ED9
:10110000E66E1B0ED880DF54E66E41EC02F0E5522D
:10111000E552E552E5522C0EE66E89EC0BF0E552F5
:10112000DF064BD795D6E552E552E7CFD9FF12003F
:10113000D9CFE6FFE1CFD9FF020EE1260001070E6D
:10114000EC6F030EED6F040EEE6F030EEF6FF26B9C
:10115000F06B040EF76FF86BDE6EDD6ADECF14F015
:10116000DDCF15F0D890155004E6080E145C000E83
:10117000155810E2010EE66E030EE66EDFCFE6FFB5
:101180005CEC01F0E552E552E552DF2A010E01E385
:10119000DB2AE4D7020EE15C02E2E16AE552E16E8D
:1011A000E552E7CFD9FF12000001F45100E112002F
:1011B000D9CFE6FFE1CFD9FF040EE126F0C016F04B
:1011C000176A16BE17680001F7511624146EF851FD
:1011D0001720156E1406000E155A020E14C0DBFF00
:1011E000030E15C0DBFFF2C014F0156A14BE1568BB
:1011F00014C0DEFF15C0DDFF020EDBCF14F0030EBE
:10120000DBCF15F0153404E214500308000E15541A
:101210003BE2F2C016F0176A16BE1768020EDBCF6B
:1012200018F0030EDBCF19F0040E0D6E0E6A18C015
:1012300008F019C009F0E7EC0AF008C018F009C07E
:1012400019F016501824146E17501920156E14C07A
:10125000DEFF15C0DDFF020EDBCF14F0030EDBCF87
:1012600015F0040E0D6E0E6A14C008F015C009F0DA
:10127000E7EC0AF004C014F005C015F0020E14C02B
:10128000DBFF030E15C0DBFF0001F15101E1EC2B88
:10129000030EF15D01E1ED2B020EF15D01E1ED07C1
:1012A000F10501E1EC07E66AEFC0E6FFEEC0E6FFFC
:1012B0005CEC01F0E552E552E552010EE66EEDC040
:1012C000E6FFECC0E6FF5CEC01F0E552E552E552CA
:1012D000020E086E096ADBCF0DF0030EDBCF0EF0B5
:1012E0000DEC0BF006C015F007C016F0060ED88006
:1012F0001556000E1656030E15C0E7FFE75204E020
:10130000E846FE0BE706FCE1E81C146EDECFE9FFC1
:10131000DDCFEAFFB00EE926000EEA22EF501414EA
:10132000E66EDECFE9FFDDCFEAFFB00EE926000E64
:10133000EA22E552E750EF6E020E086E096ADBCF33
:101340000DF0030EDBCF0EF00DEC0BF006C015F028
:1013500007C016F0060ED8801556000E165600016E
:10136000F15115C0E7FFE75204E0E846FE0BE7063F
:10137000FCE1146EDECFE9FFDDCFEAFFB00EE92617
:10138000000EEA22EF501410E66EDECFE9FFDDCF4B
:10139000EAFFB00EE926000EEA22E552E750EF6EB2
:1013A0000001F051E824146EF2C0E9FFEA6AE9BED8
:1013B000EA68B00EE926000EEA22EF50145204E06B
:1013C000E846FE0B1406FCE1C00B02E10001EE2B27
:1013D0000001F051E824146EF2C0E9FFEA6AE9BEA8
:1013E000EA68B00EE926000EEA22EF50145204E03B
:1013F000E846FE0B1406FCE1C00BC00802E1000148
:10140000EF2B0001F051E824146EF2C0E9FFEA6A04
:10141000E9BEEA68B00EE926000EEA22EF50145247
:1014200004E0E846FE0B1406FCE1C00B400802E1B4
:101430000001EE070001F051E824146EF2C0E9FF4C
:10144000EA6AE9BEEA68B00EE926000EEA22EF5029
:10145000145204E0E846FE0B1406FCE1C00B8008C1
:1014600002E10001EF070001F02B040EF05D02E144
:10147000F06BF22B3C0EF25D01E1F26B040EE15CCD
:1014800002E2E16AE552E16EE552E7CFD9FF1200D0
:10149000040EE66E38EC00F0E552010802E10001AE
:1014A000F16B030EE66E38EC00F0E552010803E143
:1014B0000001010EF16F020EE66E38EC00F0E5520D
:1014C000010803E10001030EF16F010EE66E38EC36
:1014D00000F0E552010803E10001020EF16F120075
:1014E000DACFE4FFE2CFDAFFE9CFE4FFEACFE4FFAF
:1014F000F6CFE4FFF7CFE4FFF5CFE4FFF3CFE4FF4F
:10150000F4CFE4FFFACFE4FF00EE00F0140EE8049D
:1015100003E3EECFE4FFFBD700EE14F0060EE80481
:1015200003E3EECFE4FFFBD7E652F2A411D059EC6F
:1015300000F05CEC00F07BEC00F00001F90503E149
:10154000FA0501E1A5DFFE0ED76E700ED66EF2949D
:10155000E55200EE19F0060EE80403E3E5CFEDFFD7
:10156000FBD700EE13F0140EE80403E3E5CFEDFF24
:10157000FBD7E5CFFAFFE5CFF4FFE5CFF3FFE5CFEB
:10158000F5FFE5CFF7FFE5CFF6FFE5CFEAFFE5CFC3
:10159000E9FFE5CFDAFF1100DACFE4FFE2CFDAFFAF
:1015A000E652F2B2F292E552E5CFDAFF110091EC89
:1015B00004F048DC320EE66E89EC0BF0E5520001D7
:0E15C000F90503E1FA0501E1F3DDF4D71200AD
:0215CE00006AB1
:1015D0000EAEF0EF0AF00D6C0E1EE86A0E22001E31
:1015E00009AEF8EF0AF0086C091EE86A0922001E2D
:1015F000A0EC0BF009BE08EF0BF000AE000C086C7D
:10160000091EE86A0922046C051EE86A0522000C1E
:1016100000BEFFEF0AF00188FF0C09C013F008C0FC
:1016200012F008500D02F4CF07F0F3CF06F0095086
:101630000E02F4CF09F0F3CF08F00D02F3500726A5
:10164000F4500822E86A092212500E02F3500726CD
:10165000F4500822E86A09220EAE33EF0BF0125064
:10166000085E1350095A13AE000C0D50085E0E5060
:04167000095A000C07
:0C1674001E0EF66E000EF76E000EF86EF3
:1016800001010900F550056F0900F550066F03E1EF
:10169000056701D03DD00900F550006F0900F550F5
:1016A000016F0900F550026F09000900F550E96E5D
:1016B0000900F550EA6E090009000900F550036FB2
:1016C0000900F550046F09000900F6CF07F1F7CFC4
:1016D00008F1F8CF09F100C1F6FF01C1F7FF02C11F
:1016E000F8FF0101035302E1045307E00900F5503C
:1016F000EE6E0307F8E20407F9D707C1F6FF08C149
:10170000F7FF09C1F8FF01010507000E065BBFD70F
:021710001200C5
:0E171200FF0EE3501B6EEF0E01D0F30EE76EDC
:10172000E72E90EF0BF00C0E1A6EE76AE72E96EF9D
:101730000BF01A2E95EF0BF01B2E8EEF0BF0120014
:10174000056A046A100EE76ED8900836093604362A
:1017500005360D50045C0E50055805E30D50045E2F
:0C1760000E50055A082AE72EF0D71200A0
:04176C00FF0EE35039
:101770001B6E480E01D04C0EE76EE72EFED7E76ACF
:0C178000E72EFED71B2EF7D7000012004A
:04178C00000EF36EEA
:1017900000EE00F0080E01D81200EA6002D0EE6AF6
:0C17A000FCD7F350E9601200EE6AFCD7A1
:0417AC0013EE00F048
:1017B00023EE00F0F86A019C3AEC0BF003EC00F029
:0817C000D7EC0AF0FBD7120080
:0817C800000000000000000019
:1017D0000000000000000000000000000000000009
:1017E0000088D8A888886090F0909090A0C0A090C1
:1017F000702020207088C8A89888F880B888F8E001
:10180000909090E0F080E080F08888505020F08048
:101810008080F0F080F010F0000000000000000078
:1018200000000000000000000000000000000000B8
:1018300000000000000000000000000000000000A8
:101840000000000000000000000000000000000098
:101850000000000000000000000000000000000088
:0318600000000085
:020000040030CA
:010001000CF2
:010006008178
:00000001FF
