:020000040000FA
:0600000093EF06F0120070
:020006001200E6
:0600080064EF05F0120098
:02000E000900E7
:080010000A0F0B070C010F00A1
:0600180010EF05F01200DC
:02001E000100DF
:0C002000420D0000600000006A000000BB
:04002C00D9CFE6FF43
:10003000E1CFD9FFE652800EDF6EFD0EDB06FE0E2D
:10004000DB06D950FE0FE96EFF0EDA20EA6EDF50B4
:10005000EFCFE7FFE75204E0E8427F0BE706FCE161
:10006000DF6EFD0EDBCFE9FFEA6AE9BEEA68800ECB
:10007000E926000EEA22EF50DF10E66EFD0EDBCF20
:10008000E9FFEA6AE9BEEA68800EE926000EEA2284
:10009000E552E750EF6EE552E552E7CFD9FF120087
:1000A000D9CFE6FFE1CFD9FFE652DF6AFD0EDB06CE
:1000B000FE0EDBCFE6FF080EE552D880E754146E43
:1000C000FD0EDBCFE9FFEA6AE9BEEA68800EE926A9
:1000D000000EEA22EF5014C0E7FFE75204E0E842C6
:1000E0007F0BE706FCE1DF6E010EDF14DF6EDF50F1
:1000F00000D0E552E552E7CFD9FF12000001806B36
:10010000816B1200D9CFE6FFE1CFD9FF030EE126C4
:10011000010EF36E020EF3CFDBFF010EDB6ADBCFC5
:1001200014F0040EE76E1418E8AE02D0E73402D0E3
:10013000E750145C3BE2DF6ADFCF14F00A0EE76E93
:100140001418E8AE02D0E73402D0E750145C25E280
:10015000020EDB1C896EDFCFF6FFF76AF6BEF7688A
:100160000E0EF626000EF7220800F550E66E38EC6B
:1001700006F0E552DF28F66EF76AF6BEF7680E0E57
:10018000F626000EF7220800F550E66E38EC06F071
:10019000E5528968020EDF26CFD7020EDB50020D32
:1001A000020EF3CFDBFF010EDB2AB9D7030EE15CB1
:1001B00002E2E16AE552E16EE552E7CFD9FF1200B3
:1001C000D9CFE6FFE1CFD9FF040EE126DF6ADFCF0A
:1001D00014F0080EE76E1418E8AE02D0E73402D02F
:1001E000E750145C43E2010EF36E020EF3CFDBFF27
:1001F000030EDB6A010EDB6ADBCF14F0040EE76E40
:100200001418E8AE02D0E73402D0E750145C2CE2B8
:10021000020EDB1C896EDF28E66E38EC06F0E55234
:10022000030EDB50DF24E96EEA6AE9BEEA68600E7D
:10023000E926000EEA22EF50E66E38EC06F0E552B1
:100240008968020EDB50020D020EF3CFDBFF080EB1
:10025000146E030EDBCFE7FF1450E726030EE7CF43
:10026000DBFF010EDB2AC8D7DF2AB1D7040EE15C21
:1002700002E2E16AE552E16EE552E7CFD9FF1200F2
:10028000D9CFE6FFE1CFD9FF020EE126DF6A010EEA
:10029000DB6AFE0EDB06FD0EDB06FE0EDB500808F9
:1002A00004E0FE0EDB50090848E1FD0EDBCF14F040
:1002B000080EE76E1418E8AE02D0E73402D0E7501B
:1002C000145C17E3FD0EDBCF15F0100EE76E15186A
:1002D000E8AE02D0E73402D0E750155C0AE2080E1F
:1002E000146EFD0EDBCFE7FF1450E75EFD0EE7CF87
:1002F000DBFFFD0EDBCF14F0100EE76E1418E8AE36
:1003000002D0E73402D0E750145C0AE3100E146EFA
:10031000FD0EDBCFE7FF1450E75EFD0EE7CFDBFFFE
:10032000080E146EFE0EDBCFE7FF1450E75EFE0EE4
:10033000E7CFDBFFDE52180EDD6EFE0EDBCFE6FFF1
:10034000070EE552D880E754E76EFE0EE7CFDBFFDD
:10035000DBCF14F0010EDBCFE6FFFD0EDB50E552E4
:10036000E724E96EEA6AE9BEEA68600EE926000E53
:10037000EA22EF5014C0E7FFE75204E0E8427F0BA7
:10038000E706FCE1DF6E010EDF14DF6EDF50146E56
:10039000020EE15C03E200D0E16AE552E16E145026
:1003A000E552E7CFD9FF1200D9CFE6FFE1CFD9FF61
:1003B000020EE126800EDF6E010EDB6AFE0EDB060A
:1003C000FD0EDB06FE0EDB50080804E0FE0EDB50DF
:1003D00009084CE1FD0EDBCF14F0080EE76E14188F
:1003E000E8AE02D0E73402D0E750145C19E3FD0E0A
:1003F000DBCF15F0100EE76E1518E8AE02D0E7342B
:1004000002D0E750155C0CE2200EDF6E080E146E71
:10041000FD0EDBCFE7FF1450E75EFD0EE7CFDBFFFD
:10042000FD0EDBCF14F0100EE76E1418E8AE02D00C
:10043000E73402D0E750145C0CE3080EDF6E100EB8
:10044000146EFD0EDBCFE7FF1450E75EFD0EE7CF25
:10045000DBFF080E146EFE0EDBCFE7FF1450E75EE5
:10046000FE0EE7CFDBFFDE52180EDD6EFC0EDB501A
:10047000010BE76EFC0EE7CFDBFFD950FE0FE96EF4
:10048000FF0EDA20EA6EDF50EFCFE7FFE75204E01D
:10049000E8427F0BE706FCE1DF6EFC0EDB0425E1A2
:1004A000010EDBCFE6FFFD0EDB50E552E724E96EDF
:1004B000EA6AE9BEEA68600EE926000EEA22EF5019
:1004C000DF10E66E010EDBCFE6FFFD0EDB50E552DE
:1004D000E724E96EEA6AE9BEEA68600EE926000EE2
:1004E000EA22E552E750EF6E26D0DF1C146E010EB3
:1004F000DBCFE6FFFD0EDB50E552E724E96EEA6A4A
:10050000E9BEEA68600EE926000EEA22EF501414F4
:10051000E66E010EDBCFE6FFFD0EDB50E552E72471
:10052000E96EEA6AE9BEEA68600EE926000EEA2290
:10053000E552E750EF6E020EE15C02E2E16AE5523D
:10054000E16EE552E7CFD9FF1200956A8C6AFD0E85
:10055000936EF19E1200010EE66E040EE66EA0DDB3
:10056000E552E552010802E10001C36B010EE66E9F
:10057000030EE66E95DDE552E552010803E1000148
:10058000010EC36F010EE66E020EE66E89DDE552C6
:10059000E552010803E10001030EC36F010EE66E90
:1005A000E66E7EDDE552E552010803E10001020E30
:1005B000C36F1200D9CFE6FFE1CFD9FF030EE126CA
:1005C000E00E8114E00857E0010EDF6EDFCF14F07B
:1005D000100EE76E1418E8AE02D0E73402D0E750F0
:1005E000145C48E2DF1C8C6EDFCF14F0040EE76E63
:1005F0001418E8AE02D0E73402D0E750145C06E2EB
:10060000010EF36E020EF3CFDBFF04D0020EF36E89
:10061000F3CFDBFFDF5C03E0080EDF5C04E1DE52BA
:10062000020EDD6E02D0010EDB6A81BA09D0020E25
:10063000DBCFE6FF010EDB28E66EF8DCE552E55283
:1006400081BC0AD0020EDBCFE6FF010EDB50020FA9
:10065000E66EECDCE552E55281BE08D0020EDBCF3F
:10066000E6FF050EE66EE2DCE552E552DF50E824D7
:10067000DF6EACD78C6A030EE15C02E2E16AE55200
:10068000E16EE552E7CFD9FF1200926A9392949EF1
:10069000400EC76E220EC66E9E96C26A0F0EC16EC7
:1006A0001200D9CFE6FFE1CFD9FFE652FE0EDB50B4
:1006B000C96E9EA6FED79E96C950DF6EE552E552E2
:1006C000E7CFD9FF1200D9CFE6FFE1CFD9FF020E65
:1006D000E1260001070EBE6F030EBF6F040EC06F50
:1006E000030EC16FC46BC26B040EC86FC96BDE6EA4
:1006F000DD6ADECF14F0DDCF15F0D890155004E69A
:10070000080E145C000E15580FE2010EE66E030E83
:10071000E66EDFCFE6FF48DEE552E552E552DF2A1E
:10072000010E01E3DB2AE5D7020EE15C02E2E16A99
:10073000E552E16EE552E7CFD9FF12000001C65144
:1007400000E11200D9CFE6FFE1CFD9FF040EE12688
:10075000C2C016F0176A16BE17680001C8511624E9
:10076000146EC9511720156E1406000E155A020E8C
:1007700014C0DBFF030E15C0DBFFC4C014F0156A04
:1007800014BE156814C0DEFF15C0DDFF020EDBCFFE
:1007900014F0030EDBCF15F0153404E214500308F7
:1007A000000E15543BE2C4C016F0176A16BE176857
:1007B000020EDBCF18F0030EDBCF19F0040E0D6E26
:1007C0000E6A18C008F019C009F096EC05F008C0D0
:1007D00018F009C019F016501824146E175019207B
:1007E000156E14C0DEFF15C0DDFF020EDBCF14F066
:1007F000030EDBCF15F0040E0D6E0E6A14C008F068
:1008000015C009F096EC05F004C014F005C015F011
:10081000020E14C0DBFF030E15C0DBFF0001C35145
:1008200001E1BE2B030EC35D01E1BF2B020EC35DD0
:1008300001E1BF07C30501E1BE07E66AC1C0E6FFEB
:10084000C0C0E6FFB1DDE552E552E552010EE66EAD
:10085000BFC0E6FFBEC0E6FFA7DDE552E552E552A8
:10086000020E086E096ADBCF0DF0030EDBCF0EF02F
:10087000BCEC05F006C015F007C016F0060ED880D7
:100880001556000E1656030E15C0E7FFE75204E09A
:10089000E846FE0BE706FCE1E81C146EDECFE9FF3C
:1008A000DDCFEAFF820EE926000EEA22EF50141493
:1008B000E66EDECFE9FFDDCFEAFF820EE926000E0D
:1008C000EA22E552E750EF6E020E086E096ADBCFAE
:1008D0000DF0030EDBCF0EF0BCEC05F006C015F0FA
:1008E00007C016F0060ED8801556000E16560001E9
:1008F000C35115C0E7FFE75204E0E846FE0BE706E8
:10090000FCE1146EDECFE9FFDDCFEAFF820EE926BF
:10091000000EEA22EF501410E66EDECFE9FFDDCFC5
:10092000EAFF820EE926000EEA22E552E750EF6E5A
:100930000001C251E824146EC4C0E9FFEA6AE9BEAE
:10094000EA68820EE926000EEA22EF50145204E013
:10095000E846FE0B1406FCE1C00B02E10001C02BCF
:100960000001C251E824146EC4C0E9FFEA6AE9BE7E
:10097000EA68820EE926000EEA22EF50145204E0E3
:10098000E846FE0B1406FCE1C00BC00802E10001C2
:10099000C12B0001C251E824146EC4C0E9FFEA6A09
:1009A000E9BEEA68820EE926000EEA22EF501452F0
:1009B00004E0E846FE0B1406FCE1C00B400802E12F
:1009C0000001C0070001C251E824146EC4C0E9FF51
:1009D000EA6AE9BEEA68820EE926000EEA22EF50D2
:1009E000145204E0E846FE0B1406FCE1C00B80083C
:1009F00002E10001C1070001C22B040EC25D02E149
:100A0000C26BC42B3C0EC45D01E1C46B040EE15CFF
:100A100002E2E16AE552E16EE552E7CFD9FF12004A
:100A2000DACFE4FFE2CFDAFFE9CFE4FFEACFE4FF79
:100A3000F6CFE4FFF7CFE4FFF5CFE4FFF3CFE4FF19
:100A4000F4CFE4FFFACFE4FF00EE00F0140EE80468
:100A500003E3EECFE4FFFBD700EE14F0060EE8044C
:100A600003E3EECFE4FFFBD7E652F2A407D07EEC1F
:100A700000F0E0EC00F09EDD6EDDF294F2B0F2905A
:100A8000E55200EE19F0060EE80403E3E5CFEDFFB2
:100A9000FBD700EE13F0140EE80403E3E5CFEDFFFF
:100AA000FBD7E5CFFAFFE5CFF4FFE5CFF3FFE5CFC6
:100AB000F5FFE5CFF7FFE5CFF6FFE5CFEAFFE5CF9E
:100AC000E9FFE5CFDAFF1100DACFE4FFE2CFDAFF8A
:100AD000E652F2B2F292E552E5CFDAFF1100D5DD2F
:100AE000190EE66E56EC06F0E55282EC00F00AD8DC
:100AF0002CDDE9DD960EE66E56EC06F0E55222DEC0
:100B0000F9D71200D59CD59AD598D596A09AD594A8
:100B1000D592D590150ED76EA00ED66ED08EF28CD3
:0C0B2000F28EF28AF194F294D58E12004D
:040B2C00006A0EAE9F
:100B30009FEF05F00D6C0E1EE86A0E22001E09AE36
:100B4000A7EF05F0086C091EE86A0922001E6DEC8B
:100B500006F009BEB7EF05F000AE000C086C091EE8
:100B6000E86A0922046C051EE86A0522000C00BE32
:100B7000AEEF05F00188FF0C09C013F008C012F0B9
:100B800008500D02F4CF07F0F3CF06F009500E0223
:100B9000F4CF09F0F3CF08F00D02F3500726F4501C
:100BA0000822E86A092212500E02F3500726F45078
:100BB0000822E86A09220EAEE2EF05F01250085E44
:100BC0001350095A13AE000C0D50085E0E50095A0E
:020BD000000C17
:0E0BD2001E0EF66E000EF76E000EF86E00019D
:100BE0000900F550CF6F0900F550D06F03E1CF67D2
:100BF00001D03DD00900F550CA6F0900F550CB6F08
:100C00000900F550CC6F09000900F550E96E0900A4
:100C1000F550EA6E090009000900F550CD6F090092
:100C2000F550CE6F09000900F6CFD1F0F7CFD2F022
:100C3000F8CFD3F0CAC0F6FFCBC0F7FFCCC0F8FFA7
:100C40000001CD5302E1CE5307E00900F550EE6EEE
:100C5000CD07F8E2CE07F9D7D1C0F6FFD2C0F7FF33
:100C6000D3C0F8FF0001CF07000ED05BBFD7120042
:100C7000D9CFE6FFDACFE6FFE1CFD9FFE2CFDAFF47
:100C8000E652C950DF6E9E96C69EFD0EDB50C96EC1
:100C9000C6AE02D0FF0E03D09EA6FED7000EE552D0
:0C0CA000E552E5CFDAFFE7CFD9FF1200E4
:040CAC00FF0EE35004
:100CB0001B6EEF0E01D0F30EE76EE72E5DEF06F030
:100CC0000C0E1A6EE76AE72E63EF06F01A2E62EF3B
:0A0CD00006F01B2E5BEF06F0120089
:060CDA00056A046A100E19
:100CE000E76ED89008360936043605360D50045C98
:100CF0000E50055805E30D50045E0E50055A082AA3
:060D0000E72EF0D71200FF
:0A0D0600000EF36E00EE00F0080E80
:100D100001D81200EA6002D0EE6AFCD7F350E96015
:060D20001200EE6AFCD790
:0A0D260013EE00F023EE00F0F86A6F
:100D3000019CE9EC05F003EC00F06FEC05F0FBD74B
:020D400012009F
:0E0D42000000000000000000000000000000A3
:100D50000000000000000000000000000000000093
:100D60000000000000000000000000000000000083
:100D70000000000000000000000000000000000073
:100D80000000000000000000000000000000000063
:100D90000000000000000000000000000000000053
:0C0DA00000000000000000000000000047
:020000040030CA
:0100000024DB
:010001000EF0
:00000001FF
